S01200006275696C642F666F6D652E737265632C
S315080080001010022039832000814022006983200055
S315080080108D832000688320007B832000E242B7DA44
S3150800802084C70900338320003383200001CD200054
S31508008030338320003383200033832000F1DD2000C2
S315080080403383200033832000B1DC200041DD20008B
S31508008050338320003383200001AB230011AB2300B8
S3150800806021AB230031AB230041AB2300D1D3200041
S3150800807011D4200051D4200091D42000D1D420005E
S3150800808011D5200051D52000F1CF200051D2200073
S3150800809081D22000B1D22000E1D2200051AB2300CA
S315080080A0338320003383200033832000338320006A
S315080080B0E1CD200091CE2000C1CE2000019A2300F8
S315080080C0338320003383200033832000338320004A
S315080080D03383200081CD20003383200033832000A2
S315080080E081AB230091DD20003383200081CF20005F
S315080080F0B1CF2000A1CF2000E1CF200091D52000EC
S315080081003383200033832000F1CE20003383200000
S31508008110338320003383200021CF200033832000BF
S31508008120D1D5200011D6200051D6200091D62000A6
S31508008130D1D62000338320003383200011D32000BA
S3150800814041D3200071D32000A1D32000D1D720002D
S3150800815011D7200051D7200091D72000B1CD20009B
S3150800816033832000338320003383200033832000A9
S315080081703383200033832000338320003383200099
S315080081803383200033832000338320003383200089
S315080081903383200033832000338320003383200079
S315080081A03383200033832000338320003383200069
S315080081B03383200033832000338320003383200059
S315080081C03383200033832000338320003383200049
S315080081D03383200033832000338320003383200039
S315080081E03383200033832000338320003383200029
S315080081F03383200033832000338320003383200019
S3150800820021512600518326000000000000000000CE
S3150800821072B6394880F30888384880F309883848A0
S315080082204EF60851CEF20001086040F20000CCF28A
S3150800823000004EF63471CEF200010860BFF34F8F8E
S31508008240BFF36F8F40F20000C0F2F0004EF688517F
S31508008250CEF200010860BFF34F8FBFF36F8F4FF068
S315080082600000E1EE100A4EF63C71CEF200010860FD
S31508008270062080F31488BFF36F8F00F019FE1BF0F9
S315080082805FFD4FF055301F491B4A91423CBF41F8EC
S31508008290040BFAE71C49194A91423CBF41F8040B02
S315080082A0FAE71A491A4A1B4B9A423EBF51F8040B81
S315080082B042F8040BF8E700201749184A91423CBFD8
S315080082C041F8040BFAE700F03BFE33F089FF144C43
S315080082D0144DAC4203DA54F8041B8847F9E759F001
S315080082E03FFF114C114DAC4203DA54F8041B884782
S315080082F0F9E700F01DBE000010100220101602203B
S31508008300008020001000022010100220A8420A084F
S3150800831010160220EC1A0220F01A02209066052098
S3150800832000822000048220000482200008822000A7
S315080083306EE700F000F8FEE70748084902680060A3
S315080083408A4201D0FFF764FF054906488860D0F8DD
S3150800835000D0406800470000F0FF0120EFBEADDE08
S3150800836000ED00E00000F01F1EF0040F0CBFEFF355
S315080083700880EFF309801BF08BBE1EF0040F0CBFBC
S31508008380EFF30880EFF309801BF0CABE1EF0040F56
S315080083900CBFEFF30880EFF309801BF009BF00BF9D
S315080083A0EC46A0E8F05F4FF000007047B0E8F05FD9
S315080083B0E546080008BF0120704700BF81F000416C
S315080083C002E000BF83F0004330B54FEA41044FEAAC
S315080083D0430594EA050F08BF90EA020F1FBF54EA47
S315080083E0000C55EA020C7FEA645C7FEA655C00F0E3
S315080083F0E2804FEA5454D4EB5555B8BF6D420CDDB4
S315080084002C4480EA020281EA030382EA000083EA36
S31508008410010180EA020281EA0303362D88BF30BDD6
S3150800842011F0004F4FEA01314FF4801C4CEA11312C
S3150800843002D0404261EB410113F0004F4FEA03338B
S315080084404CEA133302D0524263EB430394EA050F16
S3150800845000F0A780A4F10104D5F1200E0DDB02FA85
S315080084600EFC22FA05F2801841F1000103FA0EF219
S31508008470801843FA05F359410EE0A5F120050EF1DF
S31508008480200E012A03FA0EFC28BF4CF0020C43FA10
S3150800849005F3C01851EBE37101F0004507D54FF01D
S315080084A0000EDCF1000C7EEB00006EEB0101B1F56D
S315080084B0801F1BD3B1F5001F0CD349085FEA3000B3
S315080084C04FEA3C0C04F101044FEA445212F5800FBE
S315080084D080F09A80BCF1004F08BF5FEA500C50F15B
S315080084E0000041EB045141EA050130BD5FEA4C0C3E
S315080084F0404141EB0101013C28BFB1F5801FE9D29B
S3150800850091F0000F04BF01460020B1FA81F308BFBD
S315080085102033A3F10B03B3F120020CDA0C3208DD89
S3150800852002F1140CC2F10C0201FA0CF021FA02F164
S315080085300CE002F11402D8BFC2F1200C01FA02F1D4
S3150800854020FA0CFCDCBF41EA0C019040E41AA2BFF9
S3150800855001EB0451294330BD6FEA04041F3C1CDAC1
S315080085600C340EDC04F11404C4F1200220FA04F0E1
S3150800857001FA02F340EA030021FA04F345EA03018B
S3150800858030BDC4F10C04C4F1200220FA02F001FA4D
S3150800859004F340EA0300294630BD21FA04F02946CF
S315080085A030BD94F0000F83F4801306BF81F4801168
S315080085B00134013D4EE77FEA645C18BF7FEA655CDB
S315080085C029D094EA050F08BF90EA020F05D054EAAD
S315080085D0000C04BF1946104630BD91EA030F1EBFB2
S315080085E00021002030BD5FEA545C05D140004941B6
S315080085F028BF41F0004130BD14F580043CBF01F5A9
S31508008600801130BD01F0004545F0FE4141F470018E
S315080086104FF0000030BD7FEA645C1ABF1946104669
S315080086207FEA655C1CBF0B46024650EA013406BF6A
S3150800863052EA033591EA030F41F4002130BD00BF29
S3150800864090F0000F04BF0021704730B54FF48064E6
S3150800865004F132044FF000054FF0000150E700BF67
S3150800866090F0000F04BF0021704730B54FF48064C6
S3150800867004F1320410F0004548BF40424FF00001B3
S315080086803EE700BF42004FEAE2014FEA31014FEAF6
S3150800869002701FBF12F07F4393F07F4F81F0605145
S315080086A0704732F07F4208BF704793F07F4F04BF90
S315080086B041F40021704730B54FF4607401F000456D
S315080086C021F000411CE700BF50EA010208BF7047CD
S315080086D030B54FF000050AE050EA010208BF7047BE
S315080086E030B511F0004502D5404261EB41014FF427
S315080086F0806404F132045FEA915C3FF4D8AE4FF02F
S3150800870003025FEADC0C18BF03325FEADC0C18BF11
S31508008710033202EBDC02C2F1200300FA03FC20FA62
S3150800872002F001FA03FE40EA0E0021FA02F11444AF
S31508008730BDE600BF4FEA4102B2F1E04324BFB3F5FC
S31508008740001CDCF1FE5C0DD901F0004C4FEAC002BA
S315080087504CEA5070B2F1004F40EB830008BF20F09E
S315080087600100704711F0804F21D113F13872BCBF58
S3150800877001F00040704741F480114FEA5252C2F1AD
S315080087801802C2F1200C10FA0CF320FA02F018BFF6
S3150800879040F001004FEAC1234FEAD32303FA0CFC49
S315080087A040EA0C0023FA02F34FEA4303CCE77FEAD8
S315080087B0625307D150EA01331EBF4FF0FE4040F422
S315080087C04000704701F0004040F0FE4040F40000D1
S315080087D0704700BF80F0004002E000BF81F0004112
S315080087E042001FBF5FEA410392EA030F7FEA226C49
S315080087F07FEA236C6AD04FEA1262D2EB1363C1BFD9
S31508008800D218414048404140B8BF5B42192B88BF47
S31508008810704710F0004F40F4000020F07F4018BF6A
S31508008820404211F0004F41F4000121F07F4118BF8A
S31508008830494292EA030F3FD0A2F1010241FA03FC32
S3150800884010EB0C00C3F1200301FA03F100F000431A
S3150800885002D5494260EB4000B0F5000F13D3B0F1E2
S31508008860807F06D340084FEA310102F10102FE2A51
S3150800887051D2B1F1004F40EBC25008BF20F00100C1
S3150800888040EA03007047490040EB0000013A28BF60
S31508008890B0F5000FEDD2B0FA80FCACF1080CB2EBE3
S315080088A00C0200FA0CF0AABF00EBC2505242184361
S315080088B0BCBFD0401843704792F0000F81F4000106
S315080088C006BF80F400000132013BB5E74FEA4103D9
S315080088D07FEA226C18BF7FEA236C21D092EA030F45
S315080088E004D092F0000F08BF0846704790EA010FBF
S315080088F01CBF0020704712F07F4F04D1400028BFEC
S3150800890040F00040704712F100723CBF00F50000CD
S31508008910704700F0004343F0FE4040F40000704703
S315080089207FEA226216BF08467FEA236301464202AF
S3150800893006BF5FEA412390EA010F40F480007047C2
S315080089404FF0000304E000BF10F0004348BF404268
S315080089505FEA000C08BF704743F0964301464FF0A4
S3150800896000001CE050EA010208BF70474FF0000300
S315080089700AE000BF50EA010208BF704711F0004341
S3150800898002D5404261EB41015FEA010C02BF844611
S315080089900146002043F0B64308BFA3F18053A3F570
S315080089A00003BCFA8CF2083AA3EBC25310DB01FAB7
S315080089B002FC634400FA02FCC2F12002BCF1004F3B
S315080089C020FA02F243EB020008BF20F001007047CC
S315080089D002F1200201FA02FCC2F1200250EA4C0020
S315080089E021FA02F243EB020008BF20EADC70704766
S315080089F07BB972B90029BEBF00204FF0004106E0DE
S31508008A0008BF00281CBF6FF000414FF0FF3000F090
S31508008A1057B8ADF1080C6DE904CE002909DB002B27
S31508008A201ADB62F051F9DDF804E0DDE9022304B04F
S31508008A307047404261EB4101002B1BDB62F044F9B1
S31508008A40DDF804E0DDE9022304B0404261EB4101B0
S31508008A50524263EB43037047524263EB430362F0AF
S31508008A6033F9DDF804E0DDE9022304B0404261EBA6
S31508008A7041017047524263EB430362F025F9DDF882
S31508008A8004E0DDE9022304B0524263EB4303704776
S31508008A9053B94AB9002908BF00281CBF4FF0FF3157
S31508008AA04FF0FF3000F00CB8ADF1080C6DE904CEBC
S31508008AB062F00AF9DDF804E0DDE9022304B0704744
S31508008AC0704700BF2DE9F04F2DED108AC1F80CD084
S31508008AD0D0F80CD0BDEC108ABDE8F08F00F0A0FBF2
S31508008AE0002383F311882846A047002001F038FFA9
S31508008AF0FEE700F02DFD01F0A3FE00F091FB00DF7C
S31508008B00FEE710F8012B11F8013B012A28BF9A420B
S31508008B10F7D0D01A7047034613F8012B002AFBD169
S31508008B20181A013870470000000000000000000015
S31508008B30704700BF000000000000000000000000B1
S31508008B4080207047000000000000000000000000C0
S31508008B5043685B8A03F47063B3F5E06F0BD8C9B258
S31508008B6010B4C4692173C2699368D907FCD5207B00
S31508008B705DF8044B7047C269D1609368DB07FCD582
S31508008B80D06880B2704700BF0000000000000000F7
S31508008B9070B514460646551814F8011B3046FFF7FB
S31508008BA0D7FFAC42F8D170BD0000000000000000FD
S31508008BB070B5541E06466518FF213046FFF7C8FFF4
S31508008BC004F8010FAC42F7D170BD00BF00000000E9
S31508008BD030B5092483B00546EB6A01AA0121186855
S31508008BE0FFF7E6FF9DF80400FF2801D1013CF3D109
S31508008BF003B030BD000000000000000000000000C7
S31508008C00836970B51A690546DC681440E2B2A6079E
S31508008C106FEA02021A6103D543681B6903B19847D4
S31508008C20600704D56B689B690BB1284698472107EE
S31508008C3004D56B681B6A0BB128469847E20604D52B
S31508008C406B689B6A0BB128469847E30706D56B689D
S31508008C509B681BB12846BDE87040184770BD00BF29
S31508008C60024A136843F0C0031360704700100140BE
S31508008C70024A136843F0C0031360704700140140AA
S31508008C8030BFFDE700000000000000000000000003
S31508008C9070B500F10B06002B14BF9E468E46B446EF
S31508008CA07546B1FBF2F302FB1314194604F13003BF
S31508008CB0392BC8BF04F137039542DBB2BEFBF2FE7F
S31508008CC00CF8013DECD2A6EB0C02024401E01CF8BC
S31508008CD0013F00F8013B9042F9D170BD0000000049
S31508008CE00346D0E90202904209D0002010B45C681D
S31508008CF0A154DA685DF8044B0132DA6070476FF008
S31508008D00010070470000000000000000000000009D
S31508008D10D0E903239A4205D041685A1CCB5C02610C
S31508008D20184670476FF00100704700BF000000004A
S31508008D3000B590F801E000210EF1010E8C464FEACD
S31508008D404E1EBCF1020F0FD103794FF0060C427983
S31508008D5003EBC1339BB203EB5103C3F34E0102EBA2
S31508008D60C33211FA82F291B210F80C300CF1010CF0
S31508008D7003EBC133E6459BB203EB510189B2E0D858
S31508008D8008465DF804FB00BF000000000000000074
S31508008D90B0F5805F254B41F67D51254A34BF6121E8
S31508008DA01A4610B504320CE032F8023C5FFA83FC2E
S31508008DB01B0A0CEB010E704509DB043283B132F84D
S31508008DC0041C4B1E14469BB29842EDD810BD082BC6
S31508008DD0FCD8DFE803F00E12181B1E2124270A0010
S31508008DE004EB4C0234F81C10DCE7A0F5E35080B223
S31508008DF010BD411A32F8110010BD431A03F00103E1
S31508008E00C31A98B210BD103880B210BD203880B28F
S31508008E1010BD303880B210BD1A3880B210BD083087
S31508008E2080B210BD503880B210BD00BF34BC0608F1
S31508008E3040BA06080000000000000000000000001C
S31508008E4038B5D0E9025304464068ED1A18449542ED
S31508008E5028BF15462A4662F0A9F8E36828462B4437
S31508008E60E36038BD000000000000000000000000BC
S31508008E7038B504460846D4E903536168ED1A19441F
S31508008E80954228BF15462A4662F090F82369284677
S31508008E902B44236138BD00BF00000000000000001D
S31508008EA0406B5CF015B900BF000000000000000030
S31508008EB010B5BFF34F8FBFF36F8F1C480022C0F861
S31508008EC05022BFF34F8FBFF36F8F436943F40033CC
S31508008ED04361BFF34F8FBFF36F8FC0F88420BFF392
S31508008EE04F8FD0F8803043F6E074C3F34E3CC3F39B
S31508008EF0C90E4FEA4C1C0CEA0401734641EA837218
S31508008F00013BC0F860225A1CF8D1ACF1200C1CF1C8
S31508008F10200FF0D1BFF34F8F436943F48033436189
S31508008F20BFF34F8FBFF36F8F10BD00BF00ED00E09A
S31508008F30FEE700BF0000000000000000000000007F
S31508008F40F8B5154D154F164905F170041548164A1A
S31508008F5081420DD9043A034652F8046F43F8046B6C
S31508008F609942F9D84B1E1B1A23F0030304331844FD
S31508008F70874207D9013F00213F1A27F0030204322E
S31508008F8062F00CF8A54205D0D5E90420D5E9061704
S31508008F901035DDE7F8BD00BF48BD06089066052018
S31508008FA0906605209066052084470A0800000000A0
S31508008FB02DE9F04F02F00309C2F34114C2F380060B
S31508008FC0C2F3C105C2F3C317CE4600224FF00F0BFA
S31508008FD0A04616E00368072A0AEA030343EA0E03D3
S31508008FE003604AD8036A23EA040343EA0C030362CC
S31508008FF0490840D076000132AD004FEA88084FEAAA
S315080090008E0ECB07F4D501244368B9F1020F04FA92
S3150800901002F423EA04034FF0030443EA0603436019
S315080090204FEA420304FA03F3846824EA03046FEA66
S31508009030030A44EA05048460C46824EA030C02F0BF
S3150800904007044CEA08034FEA8404C36007FA04FCE1
S315080090500BFA04F4BED1072A16D8036A23EA0403D6
S3150800906043EA0C030362036849080AEA030343EA6E
S315080090700E030360BED1BDE8F08F436A23EA0403FA
S3150800908043EA0C034362B3E7436A23EA040343EA69
S315080090900C034362E7E700BF000000000000000081
S315080090A000EB8103DA68936910B41C681C6109B97E
S315080090B0402C25D8538A1268C06E02F0030C5A1E3B
S315080090C02244BCF1010FB2FBF3F202FB03F303F1F6
S315080090D0030323F0030343EAC24300EB411243F0C0
S315080090E0C043C2F8103B0ED009B200EB41105DF840
S315080090F0044BD0F8003B43F00443C0F8003B7047EC
S3150800910040241C60D6E7D0F8083800EB411209B2B3
S3150800911013F4807FD2F8003B14BF43F0805343F02A
S315080091200053C2F8003BE0E7000000000000000022
S3150800913000EB810310B4DC68626913681361F3B944
S31508009140C26E4FF4002002EB4113C3F810092368DE
S3150800915003F00303012B2AD008B202EB40100123C7
S31508009160D0F800498B4044F00444C0F80049D2F8CE
S3150800917034185DF8044B0B43C2F83438704709B904
S31508009180402B25D8B4F810C0C26E0CF1FF30184435
S31508009190B0FBFCF043EAC04302EB411043F0005336
S315080091A0C0F81039236803F00303012BD4D1D2F891
S315080091B0083808B213F4807F02EB4113D3F800494C
S315080091C014BF44F0805444F00054C3F80049C4E77F
S315080091D040231360D6E700BF00000000000000002F
S315080091E0044B5A68D36843F08003D360D3685B06A0
S315080091F0FCD570472C760220000000000000000015
S31508009200034A516853685B1A9842FBD8704700BFF7
S31508009210001000E000000000000000000000000050
S3150800922038B5064C256B35B9636B002B03DD45F065
S315080092304FF8656338BD024800F00AF85C780220EA
S31508009240F8B2060800000000000000000000000058
S3150800925000B583B072B6174CE06200BEC921164B42
S315080092600246E062009140F25E20144945F0A0FAF9
S31508009270A36993F84C30C3B9EFF311833BB90023C4
S3150800928083F3118862B601210D48FFF78FF8FFF7BF
S31508009290C7FF2368A34204D0A2699B6892689A42D2
S315080092A005D3002383F31188E9E730F091FF0548D9
S315080092B0FFF7CEFF5C78022000B306081CB3060849
S315080092C00078022034B30608000000000000000001
S315080092D0914210B518D38B1A1F2B15D801F01F0C05
S315080092E00123490902F01F0E0CF1010C5409B1EBD8
S315080092F0521F03FA0CF303F1FF3308D850F8240081
S31508009300184020FA0EF010BD0748FFF7A1FF50F8E5
S31508009310211050F8242003EA0100CEF1200122FA98
S315080093200EF38840184310BDA0B7060800000000D9
S3150800933008B5FFF775FF084B1A689A4204D0996971
S3150800934093688A689A4203D3002383F3118808BD79
S315080093500248FFF77DFF00BF5C7802204CB706087D
S31508009360002918BF002808B50CBF012300230CD01C
S315080093700279052A06D1806A4FF40072C1E90020F5
S31508009380184608BD0123184608BD0148FFF760FFC7
S31508009390D0B406080000000000000000000000002D
S315080093A008B530B129B1012901D0002008BD002A2D
S315080093B0FBD00148FFF74CFFE8B60608000000009E
S315080093C008B530B129B1012901D0002008BD002A0D
S315080093D0FBD00148FFF73CFFA0B6060800000000D6
S315080093E011F00C0F00D17047014808B5FFF730FFA0
S315080093F040B306080000000000000000000000005E
S3150800940038B5002834D01C4C0121827A236801FA29
S3150800941002F213422CD0C07A23EA0203174A4FEA13
S31508009420501C00F01F0EDDB201FA0EF10CF1200CF3
S3150800943042F82C100244002182F8001323604DB92B
S315080094400F4A116B21F400111163116D21F40011FB
S315080094501165126D13F47F4F09D1094B1A6B22F46B
S3150800946080021A631A6D22F480021A651B6D38BDD4
S315080094700448FFF7EDFE00BFF078022000E100E0A7
S31508009480003802401CB40608000000000000000076
S3150800949010B5F3B1541E7F2C1BD87F2919D8541840
S315080094A0802C16D8446803EB020C1846C91A04F136
S315080094B0500E431823F0030203F003035EF802205C
S315080094C0DB0022FA03F300F8013B8445F1D10020C2
S315080094D010BD0148FFF7BCFEE8B40608000000000E
S315080094E0F8B54BB3541E7F2C26D87F2924D8541898
S315080094F0802C21D844689D181846A1EB030E04F168
S31508009500500CFF2600EB0E0310F8012B03F00301A5
S3150800951023F00303A8424FEAC1015CF8034006FAA8
S3150800952001F702FA01F224EA070142EA01024CF8BD
S315080095300320E7D10020F8BD0148FFF789FE00BFE8
S31508009540FCB506080000000000000000000000004E
S3150800955008B5094BD3E90C210A430AD10122032194
S315080095602D205A634DF07CFD044A054B526A1A6059
S3150800957008BD0448FFF76CFE5C780220000C00402A
S31508009580907902204CB30608000000000000000095
S3150800959070B558B304460D46202383F31188FFF7A8
S315080095A0D7FF23785A1E012A20D86968012BC4E9F7
S315080095B0015168D0A36900221A605A639A63DA6374
S315080095C01A64207C042814D800225A6260692A6822
S315080095D0B0FBF2FC0CF1FF36B6F5803F03D20CFB6C
S315080095E002F2904208D06748FFF732FE6648FFF756
S315080095F02FFE9A65DA65E7E7EA680139E86B02F053
S315080096000F029E62D962012A586003D0022A14BF4B
S3150800961000220322696901F00F01012900F08C80FC
S31508009620022900F08780E96901F00F01012900F09D
S315080096308D80022900F08880696A01F00F010129EE
S315080096407FD002297BD0296C002001251A6221F0DF
S31508009650FF0185225D611861D9604FF400415964A4
S315080096601A600223E0602370FFF7DAFD474B1A6899
S315080096709A4204D0996993688A689A4269D3002302
S3150800968083F3118870BD424B9C4225D0414B9C42C6
S3150800969062D0414B9C4234D1404B1A6C42F00802CE
S315080096A01A641A6E42F008021A661A6E1A6A42F0AC
S315080096B008021A621A6A22F008021A62384A1B6AF3
S315080096C06261A36946F668029A61DA6102F18072FC
S315080096D002F580325A6579E7304B1A6C42F002027D
S315080096E01A641A6E42F002021A661A6E1A6A42F072
S315080096F002021A621A6A22F002021A62284A1B6ACF
S315080097006261284B9C42DCD1244B5A6C42F002021F
S315080097105A645A6E42F002025A665A6E5A6A42F001
S3150800972002025A625A6A22F002025A621E4A5B6AA8
S315080097306261C6E742F0200242F0100273E742F483
S31508009740005242F480527EE742F4007242F480727C
S3150800975072E71648FFF77CFD104B1A6C42F00402BC
S315080097601A641A6E42F004021A661A6E1A6A42F0EF
S3150800977004021A621A6A22F004021A62084A1B6A6A
S3150800978062619EE7F0B4060854B806085C780220C1
S31508009790BC750220D8750220F475022000380240F4
S315080097A000F36F061076022000E6DF0C10B80608F4
S315080097B038B5F0B10446202383F31188FFF7C8FEB5
S315080097C023785A1E012A14D8022B18D00022012306
S315080097D062602370FFF724FD264B1A689A4204D06C
S315080097E0996993688A689A4206D3002383F3118895
S315080097F038BD2148FFF72CFD2048FFF729FDE3690E
S315080098000025206A1A6822F040021A601D605D6011
S31508009810FFF7F6FD606AFFF7F3FD194B9C42C4E9B2
S3150800982008551BD0174B9C420DD0174B9C42CDD1E7
S31508009830164B1A6C22F400421A641A6E22F400427D
S315080098401A661B6EC2E7114B1A6C22F480421A6420
S315080098501A6E22F480421A661B6EB7E70B4B5A6CD7
S3150800986022F480525A645A6E22F480525A665B6E0B
S31508009870ACE700BF5C78022090B50608A4B50608D8
S31508009880F87602202877022058770220003802400E
S3150800989010B5F0B10446202383F31188FFF758FE6C
S315080098A02378022B15D162680123D2E902218B4065
S315080098B09BB25383FFF7B4FC094B1A689A4204D04B
S315080098C0996993688A689A4206D3002383F31188B4
S315080098D010BD0448FFF7BCFC0348FFF7B9FC00BFFE
S315080098E05C78022078B50608A4B5060800000000D2
S315080098F010B5F0B10446202383F31188FFF728FE3C
S315080099002378022B15D162680123D2E902218B4004
S315080099109BB21383FFF784FC094B1A689A4204D05A
S31508009920996993688A689A4206D3002383F3118853
S3150800993010BD0448FFF78CFC0348FFF789FC00BFFD
S315080099405C78022048B50608A4B5060800000000A1
S31508009950002918BF0028F8B50CBF012700275CD0DE
S3150800996003790646062B52D10C4642F2107501E0E1
S31508009970013D55D0F36A224601211868FFF718F908
S315080099802378FE2BF4D1F36A1D68002D42D02023DC
S3150800999083F31188FFF7DCFD2B78022B3AD10323DA
S315080099A04FF4007105F108002B702B6A1A68AB6A30
S315080099B0D46043F480635160EC6A13606B6A204D8F
S315080099C01B68DD6059601C60116841F00101116077
S315080099D01A6842F001021A6058F03AFAFFF720FCBA
S315080099E0184B1A689A4204D0996993688A689A4209
S315080099F022D3002383F31188F36AFF211C682046CB
S31508009A00FFF7A6F8FF212046FFF7A2F800E0012796
S31508009A103846F8BD0C48FFF71BFC0C48FFF718FC46
S31508009A20F36A01271868FFF763FFF36A1868FFF7F8
S31508009A30BFFE05233371EBE70548FFF709FC00BFB6
S31508009A409C410A085C780220F0B5060810B506089D
S31508009A50A4B5060800000000000000000000000091
S31508009A60C36A0721084A10B504461868FFF790F834
S31508009A702046FFF7ADF8E36A1868FFF739FF0523B4
S31508009A800020237110BD00BFD0BD060800000000ED
S31508009A9008B50A4B1A6B002A01DD5A6B12B1084841
S31508009AA0FFF7D6FB012203212D205A634DF0D8FA81
S31508009AB0044A054B526A1A6008BD00BF5C7802204A
S31508009AC054B30608000C00409079022000000000FC
S31508009AD010B5EFF311844CB9EFF30583C3F308030C
S31508009AE033B1202383F31188FFF7D2FF204610BD38
S31508009AF0202383F31188FFF72BFD204610BD00BFF6
S31508009B0010B5074C236B002B07DD636B002B04DDB8
S31508009B1044F0DEFB0023636310BD0248FFF798FBA1
S31508009B205C7802205CB30608000000000000000014
S31508009B3008B5202383F31188064A136B002B01DB33
S31508009B40516B11B10448FFF783FB0133136381F3AB
S31508009B50118808BD5C78022064B30608000000007E
S31508009B6008B5202383F31188064A136B002B01DD01
S31508009B70516B11B10448FFF76BFB013B136381F38B
S31508009B80118808BD5C7802206CB306080000000046
S31508009B9008B5054B1A6B002A03DB5B6B002B00DD4F
S31508009BA008BD0248FFF754FB5C78022074B3060828
S31508009BB038B504460D46FFF7EBFFD4E90420824288
S31508009BC003D050F8043B2B6038BDE268002AF8D071
S31508009BD0002038BD00000000000000000000000062
S31508009BE0F8B50C46064617461D46FFF7D1FF2CB1B9
S31508009BF027B11DB1012D04D0E80702D52548FFF786
S31508009C0027FB3378022B01D0052BF7D10323306AC3
S31508009C10346133702378C6E902752BB1012D0CBF68
S31508009C2040F4807040F484706188D6E9063201FBFE
S31508009C3005F501391268D7605560106010686569C6
S31508009C4040F001001060226AE06842EA01520021F1
S31508009C501960A169DD601961A18B656A5962E18B9A
S31508009C6099620D49DA6201432269A06A1D63586345
S31508009C705960510008D5094940F2033011400243A2
S31508009C80014399609A60F8BD40F201311143996029
S31508009C90F8BD00BF48B6060800010004FDFFFFBF77
S31508009CA02DE9F04104460D461646FFF771FF3CB113
S31508009CB02378042B04D104EB85022FB2D36813B1A1
S31508009CC04E48FFF7C5FA7169D66021B10B604B6043
S31508009CD08B60CB600B61B3692BB1002119605960A9
S31508009CE09960D9601961D368E66E1A6802F00302B2
S31508009CF0511E02294BD8424901EB824806EB451210
S31508009D000021C2F8101B69019A69002A42D0588AB4
S31508009D1005F1580240EA08005201B05005F110005A
S31508009D2001228240D6F81C080243C6F81C2872187D
S31508009D300021C2F810195A69002A42D01F8A9B8B43
S31508009D40BA08012B88BF5A43D4E91C134868D118AE
S31508009D508142616732D843EA024305F13F02294648
S31508009D60304606EB820247EA855753605BF050F9A6
S31508009D7005F1480347EA08075B01F7500123D6F8BF
S31508009D801C28AB401343C6F81C38BDE8F081DFF841
S31508009D907080B3E706EB471205F1100C012000FAB4
S31508009DA00CF0D2F800CB2CF4004CC2F800CBD6F855
S31508009DB01C2822EA0002C6F81C28B8E71148FFF753
S31508009DC047FA05F13F03104A06EB4717294606EB03
S31508009DD0830330465A605BF01BF9D7F80019012354
S31508009DE021F4004103FA05F2C7F80019D6F81C3821
S31508009DF023EA0203C6F81C38C7E700BFD8B7060827
S31508009E00008000102CB406080004000200000000C0
S31508009E102DE9F04105460E4690461F46FFF7B8FE67
S31508009E20E5B1052E1AD84FF0010C69890CFA06FC23
S31508009E301CEA01041FFA8CF310D1194305EB8603BB
S31508009E402846DB68698131469D69C5F80880EC605B
S31508009E50C5E90074BDE8F041FFF722B90148FFF7EC
S31508009E60F7F900BFFCB60608000000000000000075
S31508009E70F8B51F4604460D461646202383F3118877
S31508009E80FFF766FB2378042B20D1324620463B4653
S31508009E902946FFF7BDFF04EB8501CB6898690C30AE
S31508009EA057F0D6FF0446FFF7BBF9114B1A689A42DA
S31508009EB004D0996993688A689A4204D3002383F385
S31508009EC011882046F8BD0B48FFF7C2F9FFF7A8F935
S31508009ED0074B1A689A4204D0996993688A689A4225
S31508009EE0F1D3002383F311886FF00104E9E700BF7B
S31508009EF05C78022060B80608000000000000000038
S31508009F002DE9F04105460E4690461F46FFF740FEEE
S31508009F10E5B1052E1AD84FF0010C29890CFA06FC72
S31508009F201CEA01041FFA8CF310D1194305EB8603CA
S31508009F302846DB68298131465D69C5F80880EC60EA
S31508009F40C5E90074BDE8F041FFF7F2B80148FFF72C
S31508009F507FF900BFA8B60608000000000000000050
S31508009F60406B00F58053D3F88C3530B51C6883B048
S31508009F702278042A02D1027A022A01D003B030BD1F
S31508009F801D7901232289AB401342F7D101A9443038
S31508009F90FFF70EFE024628B1019B29462046FFF729
S31508009FA0AFFFEBE70148FFF753F900BFF0B6060825
S31508009FB0F8B51F4604460D461646202383F3118836
S31508009FC0FFF7C6FA2378042B20D1324620463B46B3
S31508009FD02946FFF795FF04EB8501CB6858690C30D5
S31508009FE057F036FF0446FFF71BF9114B1A689A42D9
S31508009FF004D0996993688A689A4204D3002383F344
S3150800A00011882046F8BD0B48FFF722F9FFF708F933
S3150800A010074B1A689A4204D0996993688A689A42E3
S3150800A020F1D3002383F311886FF00104E9E700BF39
S3150800A0305C78022060B806080000000000000000F6
S3150800A04038B590F84C300446063B052B04D8DFE8B3
S3150800A05003F02D03030612262948FFF7F9F8456D84
S3150800A060B0F86220954206D2C268128AB5FBF2F1B0
S3150800A07002FB115585B31422202384F84C2083F360
S3150800A0801188FFF705FD002320461A461946FFF7F3
S3150800A090BFFEFFF735FD002383F3118838BD836DB6
S3150800A0A003B19847002384F84C3038BDC36E416825
S3150800A0B0D3F800290D6842F40012C3F80029D3F832
S3150800A0C0002B42F40012C3F8002B0DB10621A84755
S3150800A0D0062384F84C3038BD202383F31188FFF714
S3150800A0E0D7FC2B462A4629462046FFF709FFFFF7E5
S3150800A0F007FD85F311880A2384F84C3038BD00BF64
S3150800A100DCB40608000000000000000000000000A3
S3150800A11010B590F84C100446142906D0152924D0F9
S3150800A12006290DD01B48FFF793F8C3689B695B683F
S3150800A1302BB9836D03B19847002384F84C3010BDC2
S3150800A140C36ED3F8002942F40012C3F80029D3F8E5
S3150800A150002B42F40012C3F8002B43681B6803B1B6
S3150800A1609847062384F84C3010BD0B22202380F82C
S3150800A1704C2083F31188FFF78BFC002320461A46F0
S3150800A1801946FFF7BDFEFFF7BBFC002383F31188D2
S3150800A19010BD00BF10B40608000000000000000053
S3150800A1A0F8B5044617461E460D46FFF7F1FC4FF074
S3150800A1B0010C2E4B0CFA04FC1A6812EA0C0F01D09B
S3150800A1C00020F8BD42EA0C02294904EB44001A6053
S3150800A1D003EBC40301EB8000C3E901765FFA8CF355
S3150800A1E066004BB1234B1A6B42F400121A631A6DC0
S3150800A1F042F400121A651B6D1CF47F4F09D01D4BE3
S3150800A2001A6B42F480021A631A6D42F480021A65C8
S3150800A2101B6D331951F82320136823F01F031360AD
S3150800A220136813F00103FBD126442D0101EB8601C7
S3150800A230114EEDB2CC7A91F809E0D1F804C03D216F
S3150800A240670901FA0EF1CCF8001004F01F0113603B
S3150800A250012334448B402121516106EB870284F89F
S3150800A2600053C2F8803146F82730F8BDF07802204E
S3150800A2707CB806080038024000E100E00000000053
S3150800A28070B500284DD0B1FA81F60D467609002939
S3150800A29047D00446202383F31188FFF759F923781A
S3150800A2A05A1E012A3DD8012B656048D0E369688AA1
S3150800A2B0A16A00F4706221F4F041B2F5E06F33D977
S3150800A2C0E26A41F420512E7822F4F04242F42052F8
S3150800A2D0002E2FD041F4847142F48472A162298A37
S3150800A2E01D68E26241F0040225F0400502211D6066
S3150800A2F01A6041F2070202435A601A6842F04002A5
S3150800A3001A602170FEF78CFF434B1A689A4204D0F4
S3150800A310996993688A689A4224D3002383F311883B
S3150800A32070BD3E48FEF794FFE26A2E7822F4F042AA
S3150800A330002ECFD121F4847122F48472CEE7384BF3
S3150800A3409C4212D0374B9C422AD0374B9C4245D070
S3150800A350D4E9073103F10C0209688A60616A096861
S3150800A3608A60A4E73148FEF773FF2346304A0A217C
S3150800A3700820FFF715FF206268B323462D4A0A21F5
S3150800A3800B20FFF70DFF606228B32B4B5A6C42F483
S3150800A39080525A645A6E42F480525A665B6ED7E708
S3150800A3A02346234A0A210320FFF7FAFE206290B1CA
S3150800A3B02346204A0A210420FFF7F2FE606250B1C4
S3150800A3C01D4B1A6C42F480421A641A6E42F480429B
S3150800A3D01A661B6EBCE71948FEF73AFF2346144A6D
S3150800A3E030460A21FFF7DCFE20620028F3D0234618
S3150800A3F0104A0A210720FFF7D3FE60620028EAD038
S3150800A4000D4B1A6C42F400421A641A6E42F400426A
S3150800A4101A661B6E9CE700BF5C780220B0B506087A
S3150800A420F87602202877022058770220A4B5060875
S3150800A430F1B12000E193200000380240BCB60608BE
S3150800A44038B52023044683F31188FFF721FB94F8D7
S3150800A4502030072B0FD8DFE803F0140E0E1A0A0473
S3150800A4600E0AA56AFFF794FBAB680133AB60D4E923
S3150800A470003213605A604FF0FF332046A3625AF049
S3150800A4809FFDFFF73DFB002383F3118838BDA36AC0
S3150800A49000221A60EFE700BF00000000000000007D
S3150800A4A070B5202306460C46154683F31188FFF738
S3150800A4B04FF8FFF76DFBF4B1631E23421BD1124B15
S3150800A4C064425968881B04401868651B854218D37E
S3150800A4D0A94216D35D60FEF7A3FE0C4B1A689A4292
S3150800A4E004D0996993688A689A4207D3002383F34C
S3150800A4F01188204670BD0648FEF7AAFE0548FEF7F5
S3150800A500A7FE0024E7E700BFE87802205C7802206F
S3150800A510BCB40608F8B306080000000000000000F6
S3150800A52008B5054B1A6B1AB95B6B002B00DD08BD25
S3150800A5300248FEF78DFE00BF5C7802207CB3060851
S3150800A54010B50446FFF7ECFFE3689BB16369E26860
S3150800A550D4E90610013A0344E2608B42636101D3F1
S3150800A560636A63610022236BA26233B12046BDE8A9
S3150800A570104018470148FEF76BFE10BD28B70608BD
S3150800A58070B50D460446FFF7CBFFD5B1E369043B2A
S3150800A590AB4216D3E368A3B12369A1691D60E069DC
S3150800A5A0E2680344013A8B422361E26001D3636A9D
S3150800A5B023610022236BA26233B12046BDE87040B6
S3150800A5C018470248FEF744FE70BD00BF6CB4060883
S3150800A5D070B5114C0546FFF7A3FF01212368022039
S3150800A5E0A66986F820501A68546083F8201003215B
S3150800A5F02260A3614CF034FDEFF30983643BF269F2
S3150800A6009A4205D83146A069BDE87040FEF75ABAA5
S3150800A6100248FEF71DFE00BF5C78022084B30608D8
S3150800A620F8B50C46054616461F46FFF7B1FAD4B1EB
S3150800A6301049CB699A689442C5E9036706D99D42D1
S3150800A64014D01B68A41A9A689442F8D85A684FF02E
S3150800A650FF30AC60C5E9003215609A685D60121B70
S3150800A6609A604862F8BD0448FEF7F2FD0348FEF713
S3150800A670EFFD00BF5C78022064B6060804B606083B
S3150800A68038B50446FFF784FAFFF782FAE36873B130
S3150800A690A5680020D4E900319A682A449A600B60BC
S3150800A6A0044A59604FF0FF33E060536238BD0248F0
S3150800A6B0FEF7CEFD5C78022000B506080000000013
S3150800A6C010B50446FFF764FABCB194F82020A2B18D
S3150800A6D0A2F10F02B2FA82F2520972B9A168084BC6
S3150800A6E084F820201B689A688A42FBD85A68204654
S3150800A6F02360626014605C6010BD0248FEF7A8FD26
S3150800A7005C78022080B40608000000000000000003
S3150800A71070B50C4686B00546FFF702FF631C0E4E61
S3150800A72013D0B36921460D4A01A8FFF779FF2846D9
S3150800A730FFF74EFFFFF72CFA049B13B101A8FFF7AA
S3150800A7409FFFB369986A06B070BD2846FFF740FFB9
S3150800A750B369986A06B070BD5C78022041A42000EF
S3150800A76038B5002838D004460D46202383F31188CF
S3150800A770FEF7EEFE2378012B2ED12A4B02226560C6
S3150800A7809C42227042D0284B9C4228D0636A012200
S3150800A7901A605A68D10707D401210820FFF7B8FFC5
S3150800A7A0636A5A68D207F7D5626804211F48556854
S3150800A7B01268DD611A6058612170FEF731FD1C4B85
S3150800A7C01A689A4204D0996993688A689A421AD391
S3150800A7D0002383F3118838BD1648FEF739FD164B5A
S3150800A7E01A6C42F000721A641A6E42F000721A6607
S3150800A7F01A6E1A6C42F080621A641A6E42F080620F
S3150800A8001A661B6EC2E70D48FEF722FD0A4B1A6C44
S3150800A81042F000721A641A6E42F000721A661B6ED3
S3150800A820B4E700BF0C750220347502205B8701006F
S3150800A8305C780220B4B706080038024040B706081C
S3150800A84038B5104C01212368A0691A68546083F84A
S3150800A85020102260A361FFF733FF0321054602207B
S3150800A8604CF0FEFBEFF30983643BEA699A4205D88C
S3150800A8702946A069BDE83840FEF724B90248FEF724
S3150800A880E7FC00BF5C78022084B3060800000000DD
S3150800A89008B5FFF745FEFFF77BF9064B1A689B6973
S3150800A8A092689B689A4200D808BDBDE80840FFF741
S3150800A8B0C7BF00BF5C78022000000000000000004F
S3150800A8C0E0B910B5EFF30583C3F308032BB10446CB
S3150800A8D0FFF716F984F3118810BDFFF7D9FFFEF7C5
S3150800A8E09FFC084B1A689A4204D0996993688A684B
S3150800A8F09A4204D3002383F3118810BD7047024897
S3150800A900FEF7A6FC5C7802203CB4060800000000AE
S3150800A91030B402248260816100F12C05048400248D
S3150800A9200D49846301614462C0E90F42012200F1C6
S3150800A930300480F822204A6942611061486107495B
S3150800A940C5620A780132D2B2C0E90C440A7080F8AE
S3150800A9504C2030BC704700BF5C7802205E6605203C
S3150800A96008B50646202383F31188FEF7F1FD104B40
S3150800A9709C6904F12C05E06AA662A84206D0036821
S3150800A980E3625AF01DFBE06AA842F8D194F8223037
S3150800A9903BB994F821309B0703D1D4E904321361FB
S3150800A9A05A610F20FFF714FE0248FEF751FC00BF5C
S3150800A9B05C7802201CB806080000000000000000B1
S3150800A9C010B52023044683F31188FEF7C1FD94B120
S3150800A9D021460820FFF79CFEFEF722FC094B1A6861
S3150800A9E09A4204D0996993688A689A4206D30023E2
S3150800A9F083F3118810BD0448FEF72AFC0348FEF7C6
S3150800AA0027FC00BF5C78022010B7060898B5060830
S3150800AA1030B5102483B00546EB6A01AA01211868EF
S3150800AA20FEF7C6F89DF80430FF2B13D0013CF3D18E
S3150800AA3040F6B83403E0FFF7C3FF013C0AD0EB6ADF
S3150800AA4001AA01211868FEF7B3F89DF80430012021
S3150800AA50FF2BF0D103B030BD00000000000000005D
S3150800AA6070B5154682B00C460646FFF7D1FF8DF83D
S3150800AA7004502B0E44F040010DF1040C00228DF811
S3150800AA8001302B0C2D0A0E4C8DF802306B468DF8D2
S3150800AA9000108DF8035001E013F8011F81EA420106
S3150800AAA09C45625CF8D15300F06A6A46062143F079
S3150800AAB001038DF805300068FEF76AF802B070BD2C
S3150800AAC040B9060800000000000000000000000071
S3150800AAD0C36A10B5044682B01868CDE90021FEF7AE
S3150800AAE0D7FE2046DDE90021FFF7BAFF2046FEF72C
S3150800AAF06FF8E36A04461868FEF7FAFE204602B0C5
S3150800AB0010BD00BF000000000000000000000000AB
S3150800AB1030B51D46C36A83B004461868CDE90021DE
S3150800AB20FEF7B6FE2046DDE90021FFF799FF20462D
S3150800AB30FEF74EF8E36A2A46042105461868FEF72A
S3150800AB4037F8E36A1868FEF7D3FE284603B030BD27
S3150800AB50C36A70B5054686B0186816460191FEF7B1
S3150800AB6097FE284600220199FFF77AFF2846FEF746
S3150800AB702FF880BB42F2107401E0013C32D0EB6A38
S3150800AB8002AA01211868FEF713F89DF80830FE2B73
S3150800AB90F3D1EB6A02AA10211868FEF709F806F144
S3150800ABA00C0002AB321F53F8041B09BA40F804190B
S3150800ABB08242F8D1EB6AFF211C682046FDF7C8FFE0
S3150800ABC0FF212046FDF7C4FFEB6A1868FEF790FEE2
S3150800ABD0002006B070BDEB6A1868FEF789FE0120F2
S3150800ABE006B070BD012006B070BD00BF00000000B1
S3150800ABF038B5E0B103790446052B18D1C36A062295
S3150800AC000D46027199681868FFF73AFBE36A1868F7
S3150800AC10FEF73EFE94F8303063B120462A461221EC
S3150800AC20FFF71EFF2046FDF7D3FF68B938BD0A486F
S3150800AC30FEF70EFB20466A021221FFF711FF204697
S3150800AC40FDF7C6FF0028F1D0E36A1868FEF7B0FDE5
S3150800AC5005230120237138BD24B50608000000002D
S3150800AC6070B5064615461C46FFF7C2FF58B924B903
S3150800AC700BE0013C05F5007507D029463046FEF77E
S3150800AC8067FE0028F5D0012070BD3EB13379062B4A
S3150800AC90F9D13046BDE87040FEF7E2BE0148FEF73E
S3150800ACA0D7FA00BF3CB80608000000000000000004
S3150800ACB038B5E0B103790446052B18D1C36A0722D3
S3150800ACC00D46027199681868FFF7DAFAE36A186898
S3150800ACD0FEF7DEFD94F8303063B120462A46192186
S3150800ACE0FFF7BEFE2046FDF773FF68B938BD0A4870
S3150800ACF0FEF7AEFA20466A021921FFF7B1FE204692
S3150800AD00FDF766FF0028F1D0E36A1868FEF750FDE4
S3150800AD1005230120237138BDC0B7060800000000CE
S3150800AD20002918BF0028F0B508BF012683B018BF50
S3150800AD3000266DD003790446072B03D0012630463A
S3150800AD4003B0F0BDC36A0D46384A02211868FDF7FC
S3150800AD501FFFE36A1F68002F5DD0202383F3118845
S3150800AD60FEF7F6FB3B78022B55D10323F96AD7F891
S3150800AD7028C007F108003B7041F480613B6ADFF8A0
S3150800AD80C0E01A687B6A4FF400771B68C2F80CE0CB
S3150800AD905760C2F800C0DD605F601960116841F055
S3150800ADA0010111601A6842F001021A6057F050F862
S3150800ADB0FEF736FA1E4B1A689A4204D099699368C8
S3150800ADC08A689A422AD3002383F31188E36AFF210B
S3150800ADD01D682846FDF7BCFEFF212846FDF7B8FE8C
S3150800ADE0E36A01AA01211868FDF7E2FE9DF804301E
S3150800ADF003F01F03052B14D0E36A01261868FEF733
S3150800AE0077FDE36A1868FEF7D3FC0523237196E7F6
S3150800AE100848FEF71DFA0848FEF71AFA0748FEF72B
S3150800AE2017FA2046FFF7F4FD89E700BFC8BD0608F4
S3150800AE305C78022058B706085CB60608A4B506086A
S3150800AE405666052000000000000000000000000013
S3150800AE50F8B5064615461C46FFF72AFF60B90746A9
S3150800AE6024B90CE0013C05F5007508D029463046A2
S3150800AE70FFF756FF0028F5D001273846F8BD7EB102
S3150800AE803379072BF8D1F36A0221074A1868FDF7C8
S3150800AE907FFEF36A1868FEF72BFD05233371ECE78E
S3150800AEA00248FEF7D5F900BFCCBD060888B60608E5
S3150800AEB0C36A30B5054683B0186840F6B834FEF75D
S3150800AEC0E7FC03E0FFF77CFD013C0AD0EB6A01AA28
S3150800AED001211868FDF76CFE9DF804300120FF2B50
S3150800AEE0F0D1EB6A1868FEF703FD03B030BD00BF6A
S3150800AEF010B560B30446202383F31188FEF728FBB8
S3150800AF002379022B29D0052B21D1022B25D0042306
S3150800AF102371FEF785F9184B1A689A4204D0996985
S3150800AF2093688A689A4215D3002383F31188E36AE3
S3150800AF3099681868FFF7A4F92046FFF7B9FFE36A8E
S3150800AF401868FEF735FC02232371002010BD0B4854
S3150800AF50FEF77EF90A48FEF77BF9FEF761F9064B1C
S3150800AF601A689A4204D0996993688A689A42F1D312
S3150800AF70002383F31188E8E75C78022068B50608A1
S3150800AF803CB50608000000000000000000000000B4
S3150800AF9038B590B105790446052D01D0012038BD94
S3150800AFA0C36A0822027118689968FFF769F920468A
S3150800AFB0FFF77EFF0020257138BD0148FEF748F9E6
S3150800AFC0E8B50608000000000000000000000000C8
S3150800AFD070B582B078B303790446022B01D0052BED
S3150800AFE029D1E36A0321002210252171D3E9000142
S3150800AFF084F83020FFF744F9E36A1E68FF213046DB
S3150800B000FDF7A6FD013DF9D10A2502E00A20FFF762
S3150800B010D7FC002220461146FFF75AFD01280DD01D
S3150800B020013DF3D1E36A1868FEF7C2FB022301204B
S3150800B030237102B070BD4848FEF70AF94FF4D5727D
S3150800B0400821204601ABFFF763FD052820D06425BB
S3150800B050424E04E0013DE5D00A20FFF7B1FC00228C
S3150800B06037212046FFF734FD0128F3D801AB3246D5
S3150800B07029212046FFF74CFD0028EBD101AB0246FB
S3150800B0803A212046FFF744FD9DF804305B0630D48C
S3150800B090642506E00128C5D1013DC3D00A20FFF783
S3150800B0A08FFC002201212046FFF712FD0028F1D16E
S3150800B0B0E36A99681868FFF7E3F84FF400721021FD
S3150800B0C02046FFF705FD0028ACD104F11806092132
S3150800B0D020463246FFF73CFD05460028A2D17E22CF
S3150800B0E07F213046FEF7F4F838B101282CD0A56246
S3150800B0F098E7012384F83030CAE73E2249213046D2
S3150800B100FEF7E6F82F22312105463046FEF7E0F82D
S3150800B1100346304601351E46502253210236FEF7B5
S3150800B120D7F80938B54005FA00F0A06200283FF4C0
S3150800B13079AF04F108020A212046FFF709FD002825
S3150800B1407FF470AF052373E7302245213046FEF7BA
S3150800B150BFF801308002E8E784B50608AA01004076
S3150800B16070B5202304460D4683F31188114EFEF769
S3150800B170EFF92B1BB16A0C1BA34211D8FEF750F846
S3150800B1803368B34204D0B2699B6892689A4204D382
S3150800B190002383F31188284670BD0748FEF758F840
S3150800B1A0691A03D00820FFF7B3FAE7E70348FEF762
S3150800B1B04FF800BF5C78022098B5060810B7060855
S3150800B1C008B50346006868B190F82020032A06D11E
S3150800B1D000221A608162BDE8084059F0F1BE0248B3
S3150800B1E0FEF736F808BD00BF10B6060800000000D6
S3150800B1F011F00C0F70B552D1456804462B788BB107
S3150800B200CB060E4643D4B5060BD563685B6843B1D7
S3150800B21004222046227098472378042B01D1032361
S3150800B220237070BD416A0A68136823F01F03136010
S3150800B2301368D807FCD4487A3D234A688340216AB4
S3150800B24013600A68136823F01F0313601368DB078B
S3150800B250FCD4487A3D2349686A6883400B60DAB1B2
S3150800B26004232046237090472378042B14D02023E8
S3150800B27083F31188FEF70CFC002104F10800FFF7A0
S3150800B2809FFFFEF73DFC002383F3118870BD6B68B2
S3150800B290002BC6D09847B6E702232370E7E7014894
S3150800B2A0FDF7D6FF40B306080000000000000000C6
S3150800B2B02DE9F84390F84C30044613B1002380F882
S3150800B2C04C3004EB81016268CB681B6A19685B68BD
S3150800B2D0E1652366936833B32046984718B3636DD0
S3150800B2E094F85C10B4F862209A422CBF1A4662653C
S3150800B2F0090600F1DA80002A00F08F801522202343
S3150800B30084F84C2083F31188FEF7C2FB00212046FF
S3150800B310D4E91423FEF77CFDFEF7F2FB002383F342
S3150800B3201188BDE8F88394F85C1011F060060846A9
S3150800B3301CD194F85D2001F07F0343EA022340F212
S3150800B3400232934200F0418146D8B3F5807F00F07F
S3150800B350F58023D9B3F5817F00F0FF80B3F5407FF0
S3150800B36004D194F85E30012B00F0D180E06ED0F85D
S3150800B3700039626843F400131268C0F80039D0F83F
S3150800B380003B43F40013C0F8003B12B106212046E7
S3150800B3909047062384F84C30BDE8F883012B5FD02C
S3150800B3A0022B4FD194F9600094F860200028E06ED3
S3150800B3B002F00F02C0F2A4805832520182581504D6
S3150800B3C0D5D596024FF002024CBFB048B048C4E942
S3150800B3D014020022A26585E7B3F5006F00F00C8120
S3150800B3E045D9B3F5106F37D12378042B00F099802F
S3150800B3F094F85E304BB10421626884F86730217096
S3150800B400136813B1022120469847002394F85C007C
S3150800B410C4E91433A36503065DD40B22202384F8FC
S3150800B4204C2083F31188FEF733FB002320461A4687
S3150800B4301946FEF765FDFEF763FB002383F31188C3
S3150800B440BDE8F883002B91D1022204F16400A365BC
S3150800B45020651346626545E740F60242934285D168
S3150800B46002238C480022C4E91403A2653AE7B3F51F
S3150800B470A06F00F08D80A3F5C063012B3FF676AF71
S3150800B48061682046B4F860304D6894F85E2094F8F8
S3150800B4905F10A84700283FF469AF94F85C10D0E91C
S3150800B4A00032A665C4E914231CE7A2B109222023A9
S3150800B4B084F84C2083F31188FEF7EAFA0021204627
S3150800B4C0D4E91423FEF71CFDFEF71AFB002383F3C9
S3150800B4D01188BDE8F8831422202384F84C2083F3CE
S3150800B4E01188FEF7D5FA002320461A461946FEF7B4
S3150800B4F08FFCFEF705FB002383F31188BDE8F8836C
S3150800B50048325201825817047FF531AF59E7B4F82B
S3150800B5106430A66543F00203C4E91466A4F86430EF
S3150800B52079E7202383F31188FEF7B2FAFEF730FB9A
S3150800B5302378042B76D05848FDF78AFE94F85E30B7
S3150800B540012B7FF413AFB4F86430A66523F0020329
S3150800B550C4E91466A4F864305DE794F85E30002BFD
S3150800B5607FF404AF94F8603013F00F020BD013F099
S3150800B570800FE36E03EB42134DD1D3F8002B22F470
S3150800B5800012C3F8002B0023C4E91433A36542E76D
S3150800B590B4F85C30B3F5A06FF5D194F85E10E26E9E
S3150800B5A084F86610D2F8003823F4FE6343EA0113E0
S3150800B5B061680D68C2F8003825B120460121A84700
S3150800B5C094F85C0003232370DDE794F85E30002BC3
S3150800B5D07FF4CCAE94F8603013F00F02D3D013F09A
S3150800B5E0800FE36E03EB42130ED1D3F8002B42F41F
S3150800B5F00012C3F8002BC6E7012204F16700A6650E
S3150800B6001346C4E914026DE6D3F8002942F4001281
S3150800B610C3F80029B7E7D3F8002922F40012C3F8C3
S3150800B6200029B0E7A36804F10C0504F12008B14627
S3150800B63003F00113A36055F8047F6FB1786920B150
S3150800B6400C306FF00101FFF7BBFDB86920B10C3073
S3150800B6506FF00101FFF7B4FDA8452E60EBD1216F0D
S3150800B660E06E0B68636759F0E3FCFEF749FA89F365
S3150800B67011880321636884F8676021701B68002BB2
S3150800B6803FF4B6AE20469847B2E600BF14BD06089A
S3150800B6903CB90608ECBD06086CB7060800000000B1
S3150800B6A011F00C0F70B504460FD1056965B18A060D
S3150800B6B02BD52B78002B35D06B682BB10422027062
S3150800B6C098472378042B41D070BDD0E9060159F07C
S3150800B6D0DFFC23699B6803B30522002120462270FC
S3150800B6E098472378052B18D0202383F31188FEF773
S3150800B6F0CFF94FF0FF3104F11400FFF761FDFEF7B3
S3150800B700FFF9002383F3118870BDCB06DCD56B687F
S3150800B710002BD9D0BDE870401847022200232270BA
S3150800B7202361E1E7D0E9060159F0B2FC6B6883B101
S3150800B73004222046227098472378042B09D0202318
S3150800B74083F31188FEF7A4F90021D4E703232370B5
S3150800B75070BD0222002322702361F0E7000000007A
S3150800B76069B1084A034610B4926944680420C2E9DC
S3150800B770003422605DF8044B5A60FEF7C9BF4FF0EB
S3150800B780FF3070475C7802200000000000000000CF
S3150800B79038B504460D46FEF7C3FE07E0237A93B98B
S3150800B7A029462046FFF7DCFF00280BDBE368002B61
S3150800B7B0F4D0E36853B1636900201A1D1B6813446B
S3150800B7C0C4E90A2338BD6FF0010038BD0148FDF70A
S3150800B7D03FFD00BF84B70608000000000000000017
S3150800B7E038B5202304460D4683F31188FDF7B0FECD
S3150800B7F0A36AE3B113F8015BE26AA362934212D229
S3150800B800FDF70EFD0E4B1A689A4204D099699368A3
S3150800B8108A689A4204D3002383F31188284638BDE0
S3150800B8200848FDF715FD2046FEF78AFEE8E7294693
S3150800B8302046FFF7ADFF05460028E1D1A36AD9E700
S3150800B8405C78022004B8060800000000000000002A
S3150800B8504FF0FF310C30FFF7C3BF00BF00000000F8
S3150800B8600C30FFF7BDBF00BF00000000000000005D
S3150800B8702DE9F04F83B00193002A69D004460E469D
S3150800B88017464FF0200989F31188FDF761FE002558
S3150800B890A16ADFF8F080AA4600293FD0E36AA3EB45
S3150800B8A0010B7B1B9B4528BF9B46BBF1400F3CD930
S3150800B8B0334601F1400BD1F800E0103151F80CCCB9
S3150800B8C0103351F8080C51F8042C594543F810EC7C
S3150800B8D043F80CCC43F8080C43F8042CEBD1A36AC4
S3150800B8E04036E26A403540339A42A36229D9FDF7C9
S3150800B8F097FCD8F80030434505D0D8F818209B683F
S3150800B90092689A4221D38AF31188BD4232D289F3CA
S3150800B9101188FDF71DFEA16A0029BFD101992046AD
S3150800B920FFF736FFB8B9A16AB8E730465A465FF05E
S3150800B9303DFBA36AE26A5D445B445E449A42A362A5
S3150800B940D5D82046FEF7FCFDD1E70C48FDF780FC6C
S3150800B9500B48FDF77DFCFDF763FCD8F8003043453E
S3150800B96005D0D8F818209B6892689A42EDD3002330
S3150800B97083F31188284603B0BDE8F08F04B806089B
S3150800B980D8B606085C780220000000000000000017
S3150800B9904FF0FF330C30FFF76BBF00BF000000000D
S3150800B9A00C30FFF765BF00BF000000000000000074
S3150800B9B038B504460D46FEF7B3FD07E0237A93B97A
S3150800B9C029462046FFF7CCFE00280BDBE368002B50
S3150800B9D0F4D0E36853B123690020E1691A1D0B44CA
S3150800B9E0C4E90A2338BD6FF0010038BD0148FDF7E8
S3150800B9F02FFC00BFBCB506080000000000000000D0
S3150800BA0070B5202382B004460D46164683F3118886
S3150800BA10FDF79EFDA36AFBB11D70D4E90A32013316
S3150800BA209342A36212D2FDF7FBFB174B1A689A42A0
S3150800BA3004D0996993688A689A4204D3002080F3EF
S3150800BA40118802B070BD1148FDF702FCE169204675
S3150800BA500439FEF795FDE6E731462046FFF7A8FFCD
S3150800BA6008B9A36AD8E70190FDF7DAFB064B0198F7
S3150800BA701A689A4204D0996993688A689A42E2D306
S3150800BA80002383F31188DCE75C78022004B80608F3
S3150800BA904FF0FF324430FFF7B3BF00BF000000008D
S3150800BAA04430FFF7ADBF00BF0000000000000000F3
S3150800BAB02DE9F04F83B0002A72D083460C4699468A
S3150800BAC016464FF0200888F31188FDF741FD00253A
S3150800BAD0DBF828003C4FAA4600283FD0DBF82C208C
S3150800BAE0731B121A9A4228BF1A46402A3ED9844620
S3150800BAF004F1400E2068103454F80C1C0CF1100C9C
S3150800BB0054F8082C54F8043C74454CF8100C4CF8BE
S3150800BB100C1C4CF8082C4CF8043CEBD1DBF828300C
S3150800BB204035DBF82C2040339A42CBF828302DD903
S3150800BB30FDF776FB3B68BB4204D0BA699B689268FE
S3150800BB409A422AD38AF31188B54239D288F31188E2
S3150800BB50FDF7FEFCDBF828000028BFD14946584609
S3150800BB60FFF726FFF8B9DBF82800B7E721461544A2
S3150800BB70144401925FF01AFADBF82830019A13444C
S3150800BB80DBF82C209A42CBF82830D1D8DBF81C10E9
S3150800BB9058460439FEF7F4FCCAE70C48FDF758FB8B
S3150800BBA00B48FDF755FBFDF73BFB3B68BB4204D052
S3150800BBB0BA699B6892689A42EFD3002383F3118887
S3150800BBC0284603B0BDE8F08F5C78022004B8060862
S3150800BBD0D8B30608000000000000000000000000BE
S3150800BBE04FF0FF334430FFF763BF00BF000000008B
S3150800BBF04430FFF75DBF00BF0000000000000000F2
S3150800BC0070B5202305460E4683F31188FDF7A0FC80
S3150800BC1005E031462846FFF7A3FD041E12DBAB6894
S3150800BC20002BF6D0AB68A969013B4A1CAB602B69AF
S3150800BC30AA619A420C7801D3EB68AB61EB690BB148
S3150800BC4028469847FDF7ECFA084B1A689A4204D03A
S3150800BC50996993688A689A4204D3002383F3118802
S3150800BC60204670BD0248FDF7F3FA00BF5C78022053
S3150800BC707CB6060800000000000000000000000076
S3150800BC804FF0FF310C30FFF7BBBF00BF00000000CC
S3150800BC900C30FFF7B5BF00BF000000000000000031
S3150800BCA02DE9F04F85B0002A6BD0984604460D461C
S3150800BCB01646D0F81CA0202383F31188DFF8F090ED
S3150800BCC037460193FDF744FC0296A368BB424BD363
S3150800BCD0A1693E462269521AB2424BD854D2284626
S3150800BCE0A6EB020B03925FF061F9039AE168A818C4
S3150800BCF05A465FF05BF9E2685A44A261A268921B51
S3150800BD00A260002E46D0BAF1000F01D02046D047D7
S3150800BD10FDF786FAD9F800204A4505D0D9F8181053
S3150800BD209268896891423CD3002383F31188BF1B2C
S3150800BD303544019B83F31188FDF70AFC002FC4D113
S3150800BD40029EFDF76DFAD9F800304B4505D0D9F8B3
S3150800BD5018209B6892689A4223D3002383F311889C
S3150800BD60F01B05B0BDE8F08FA1692269A668521AD2
S3150800BD70B242B3D9324628465FF018F9A26932446E
S3150800BD80BBE70948FDF764FA324628465FF00EF924
S3150800BD90E268B2E741462046FFF7E2FC002894D065
S3150800BDA0CEE70248FDF754FAD8B506087CB6060869
S3150800BDB05C7802200000000000000000000000007F
S3150800BDC04FF0FF330C30FFF76BBF00BF00000000D9
S3150800BDD00C30FFF765BF00BF000000000000000040
S3150800BDE0F8B5202305460F46164683F31188FDF756
S3150800BDF0AFFB05E031462846FFF7B2FC041E24DBFC
S3150800BE00AB68002BF6D06A69AB68511C013B6961C7
S3150800BE10AB601770D5E904329A4201D3EB686B61BF
S3150800BE20EB690BB128469847FDF7FAF9104B1A68E3
S3150800BE309A4204D0996993688A689A4215D3002071
S3150800BE4080F3118804462046F8BDFDF7E9F9084B4A
S3150800BE501A689A4204D0996993688A689A4204D300
S3150800BE60002383F311882046F8BD0248FDF7F0F950
S3150800BE705C7802207CB6060800000000000000007E
S3150800BE804FF0FF323030FFF7ABBF00BF00000000B5
S3150800BE903030FFF7A5BF00BF00000000000000001B
S3150800BEA02DE9F04F85B0002A6BD0984604460D461A
S3150800BEB01646D0F81CA0202383F31188DFF8F090EB
S3150800BEC037460193FDF744FB0296A368BB424BD362
S3150800BED03E46D4E90420121AB2424BD854D2294617
S3150800BEE0A6EB020B03925FF061F8039AE068A918C3
S3150800BEF05A465FF05BF8E2685A446261A268921B90
S3150800BF00A260002E46D0BAF1000F01D02046D047D5
S3150800BF10FDF786F9D9F800204A4505D0D9F8181052
S3150800BF209268896891423CD3002383F31188BF1B2A
S3150800BF303544019B83F31188FDF70AFB002FC4D112
S3150800BF40029EFDF76DF9D9F800304B4505D0D9F8B2
S3150800BF5018209B6892689A4223D3002383F311889A
S3150800BF60F01B05B0BDE8F08FD4E90420A668121AC4
S3150800BF70B242B3D9324629465FF018F862693244AC
S3150800BF80BBE70948FDF764F9324629465FF00EF823
S3150800BF90E268B2E741462046FFF7E2FB002894D064
S3150800BFA0CEE70248FDF754F9E8B306087CB606085A
S3150800BFB05C7802200000000000000000000000007D
S3150800BFC04FF0FF333030FFF76BBF00BF00000000B3
S3150800BFD03030FFF765BF00BF00000000000000001A
S3150800BFE038B504460068844210D00D4603682360BD
S3150800BFF05C6090F82030042B02D00548FDF728F93C
S3150800C000856258F0DDFF2068A042EFD138BD00BF39
S3150800C01048B4060800000000000000000000000008
S3150800C020014B5B6883607047001000E00000000069
S3150800C0300F4A104B81685B6810B4D2F888400269D1
S3150800C0401B1BC4685B1A41690134D218026141F1AD
S3150800C0500001426841619342026888BF4360934287
S3150800C060C0E9023438BF03605DF8044B704700BF6F
S3150800C0705C780220001000E00000000000000000CC
S3150800C08038B5202383F311880D4CFDF761FA25692D
S3150800C09095F82230013385F82230FDF7C1F8236878
S3150800C0A0A34204D0A2699B6892689A4204D30023EB
S3150800C0B083F31188284638BD0248FDF7C9F800BF42
S3150800C0C05C78022094B40608000000000000000016
S3150800C0D038B52023044683F31188FDF739FAFEF7AD
S3150800C0E01FFAA3682268002B19DB944202D016486F
S3150800C0F0FDF7AEF8013BA360013314D00024134DBD
S3150800C100FDF78EF82B68AB4204D0AA699B68926843
S3150800C1109A4216D3002383F31188204638BD9442E9
S3150800C120E5D0013BA360094D05206268AB699C62B6
S3150800C130C3E9004213606360FEF74AFAAB699C6A7A
S3150800C140DEE70348FDF784F81CB706085C7802208A
S3150800C150ECB7060800000000000000000000000020
S3150800C16010B50446FDF714FDA368002B05DB22680D
S3150800C170944210D00948FDF76BF820688442F9D03C
S3150800C180026801330021A360226054608162BDE821
S3150800C190104058F015BF0133A36010BD20B606083D
S3150800C1A0F8B52023044683F31188FDF7D1F93D4EEF
S3150800C1B0FEF7B6F9A068B569002834D0AB6882687E
S3150800C1C0934207D9836090F82030062B51D0072B6D
S3150800C1D038D06BB3234603E09968AA68914202D324
S3150800C1E01B689C42F8D15A680620C5E900321560DA
S3150800C1F05D60AC62FEF7ECF9A3689D4202D02A485E
S3150800C200FDF726F8EB6B9C42F9D1FDF709F8336880
S3150800C210B34204D0B2699B6892689A4226D3002337
S3150800C22083F31188F8BDEB6BC4E90253EC63ECE7C2
S3150800C230012380F82030D0E9003213605A6058F0A4
S3150800C240BFFEC7E7876A0368426813605A603B46C1
S3150800C25003E099688268914202D31B689F42F8D12D
S3150800C2605A680360426010605860B3E70F48FCF7ED
S3150800C270EFFF876A0368426813605A603B4603E02B
S3150800C28099688268914202D31B689F42F8D15A681E
S3150800C2900360426010605860B868AB688268934271
S3150800C2A090D897E75C78022070B60608CCB60608E0
S3150800C2B02DE9F041DFF8A08020230546D8F818704C
S3150800C2C083F31188FDF744F9FE6B16B1B368BB42D8
S3150800C2D002D01F48FCF7BCFFAE42FAD1EC68FC63FB
S3150800C2E0FEF71EF92B689D422BD03E6C5CB1FEF71B
S3150800C2F017F923689C4203D09B689E4238BF1E46A6
S3150800C300E468002CF3D1BE602868C26B03682B6012
S3150800C3105D60C5E90202C56358F052FEFEF7B8FA39
S3150800C320FCF77EFFD8F80030434505D0D8F818202A
S3150800C3309B6892689A4207D3002383F31188BDE865
S3150800C340F0810023B360EBE70248FCF781FF00BFEA
S3150800C350A0B40608CCB606085C78022000000000E7
S3150800C36038B504460D46FDF713FCBCB1A26B94F82C
S3150800C37020302A430A2BA2630CD00B2B00D038BDE1
S3150800C380A36A9343FBD100232046A362BDE8384045
S3150800C39058F016BEA36A1A42F5D1F0E70148FCF731
S3150800C3A057FF00BFACB406080000000000000000FC
S3150800C3B070B506460D46FDF7EBFB3468A6420DD070
S3150800C3C0E3682B43E36015B123691D4203D0D4E922
S3150800C3D00101FFF7C5FF2468A642F1D170BD00BF71
S3150800C3E000EB81032DE9F0411C6A84B01CB30546B5
S3150800C3F00E46202383F31188FDF74AFB0821201DEA
S3150800C400FFF7D6FF05EB8603D3F80C80D8F814306F
S3150800C4101F689FB903A904F14400FDF7C9FB02464A
S3150800C42020B1039B31462846FDF76AFDFDF768FBF8
S3150800C430002383F3118804B0BDE8F081FDF7A8FB5B
S3150800C440D4E915239A4222D0226D01322265226E42
S3150800C4501344E26D9342A36501D3A36EA36504F169
S3150800C4604400019055F00CFD019803A9FDF7A0FBC7
S3150800C47002460028D5D1B8F81030013B3B40D5D14B
S3150800C48005F15C0231462846FDF73AFDCEE7226DF6
S3150800C490002AD9D00148FCF7DBFE00BF30B60608F3
S3150800C4A00D3138B550F82140C4B1202383F31188E3
S3150800C4B0FDF7EEFA04F58053D3F88C251368527904
S3150800C4C003EB8203DB689B695D6845B9204658F033
S3150800C4D0FFFDFDF715FB002383F3118838BD042102
S3150800C4E06018FFF765FFFDF753FBA36A043B9D42FF
S3150800C4F017D8D4E90732934210D01D60A269D4E94F
S3150800C500091001320344A2618B42E36101D3236B14
S3150800C510E36104F10C0055F0B3FCD7E7A269002AE1
S3150800C520EBD00148FCF794FE28B806080000000086
S3150800C530426A38B59368044613F00105936004D03F
S3150800C54013F00C0F18BF4FF48035D90506D513F430
S3150800C550406F14BF45F4003545F00205DA0306D5E9
S3150800C56013F4402F14BF45F4802545F00405202315
S3150800C57083F31188FDF78CFA04F108000021FFF710
S3150800C5802FFD294604F11C00FFF712FFFDF7B8FA44
S3150800C590002383F3118838BD000000000000000066
S3150800C5A038B5436A0446DD68AA0715D1EB0600D4F8
S3150800C5B038BD626A10252023D56083F31188FDF7FC
S3150800C5C067FA294604F12000FFF7F2FEFDF798FA0C
S3150800C5D0002383F3118838BD5A69202122F002020C
S3150800C5E05A6181F31188FDF753FA04F1100000210E
S3150800C5F0FFF7F6FC012104F11800FFF7D9FEFDF755
S3150800C6007FFA002383F31188D0E700BF00000000FB
S3150800C61038B5436A04461D69AA0715D1EB0600D446
S3150800C62038BD626A10252023156183F31188FDF74A
S3150800C6302FFA294604F12000FFF7BAFEFDF760FA43
S3150800C640002383F3118838BD5A69202122F010028D
S3150800C6505A6181F31188FDF71BFA04F110000021D5
S3150800C660FFF7BEFC022104F11800FFF7A1FEFDF753
S3150800C67047FA002383F31188D0E700BF00000000C3
S3150800C68038B5436A5A685A60520700D438BD9D695E
S3150800C6900446202383F31188FDF7FAF904F12000F4
S3150800C6A02904FFF785FEFDF72BFA002383F311888B
S3150800C6B038BD00BF000000000000000000000000B8
S3150800C6C02DE9F047466D0446D6F800A0F5692A0715
S3150800C6D0356240F09880EA0500F18580A8062ED5D7
S3150800C6E004F10C08202704F1040987F31188FDF7E3
S3150800C6F0CFF9736A94F85C501D40FDF749FA6369EF
S3150800C700002B5DD0FDF744FAD4E90832934261D094
S3150800C7106269591C0132216262611D70D4E90732CF
S3150800C7209A4201D3A3692362404655F0A9FBFDF757
S3150800C730E7F9002383F31188F569AB06D5D41AF017
S3150800C740800F36D0290634D504F1300920274FF05A
S3150800C750000815E0A26B581C216C0132A0648842BF
S3150800C760A2631D7801D3E36BA364484655F088FBA2
S3150800C770B562FDF7C5F988F31188F5692B0618D552
S3150800C78087F31188FDF784F9FDF702FAD4E9112336
S3150800C7909A42DFD1A26B002ADCD00821201DFFF7C0
S3150800C7A007FE2AF080033360FDF7AAF9002383F316
S3150800C7B011881AF0400F01D06A0644D4BDE8F08704
S3150800C7C004214846FFF7F4FDFDF7E2F9D4E90832FB
S3150800C7D093429DD16269002A9AD04FF480614846F7
S3150800C7E0FFF7E6FDA3E7202383F31188FDF750F949
S3150800C7F04FF40071201DFFF7DBFDFDF781F90023DB
S3150800C80083F311886AE7C5F3C007EB074FF02003E7
S3150800C8104FEAC71748BF47F02007A80748BF47F0A1
S3150800C8204007690748BF47F4807783F31188FDF707
S3150800C8302FF93946201DFFF7BBFDFDF761F90023E7
S3150800C84083F3118847E7202383F31188FDF720F93E
S3150800C850D4E911239A4205D0FDF752F9002383F350
S3150800C8601188ABE7A36B002BF6D01021201DFFF72C
S3150800C8709FFD2AF040033360EEE700BF000000008A
S3150800C8802DE9F843202304468946174683F3118881
S3150800C89000F11808FCF75CFEFDF742FE10E0FDF714
S3150800C8A077F9FDF775F92369D4E90056721BB3EBDE
S3150800C8B0A20F1BD139464046FEF752FF054620B95E
S3150800C8C0237D002BEBD06FF00105FCF7A9FC134B79
S3150800C8D01A689A4204D0996993688A689A4219D361
S3150800C8E0002383F311882846BDE8F883A26804F17B
S3150800C8F02000131DA3609E42C2F80090236988BFDA
S3150800C900A5680133A5600025236155F0B9FAFDF73E
S3150800C910BFFFDAE70248FCF79BFC00BF5C78022001
S3150800C920F8B706080000000000000000000000003C
S3150800C930F8B504460F46FDF72BF9237DF3B9FDF745
S3150800C94027F9FDF725F92369D4E90056721BB3EBDD
S3150800C950A20F10D0A26804F12000131DA360B342F1
S3150800C9601760236938BFA5680133A560236155F0B0
S3150800C97087FA0020F8BD4FF0FF30F8BD6FF00100D0
S3150800C980F8BD00BF00000000000000000000000025
S3150800C9902DE9F041202305468846164683F311887B
S3150800C9A0C718FCF7D5FDFDF7BBFD09E0FDF7F0F864
S3150800C9B02B69DBB931463846FEF7D2FE044620B964
S3150800C9C02B7D002BF2D06FF00104FCF729FC164BE7
S3150800C9D01A689A4204D0996993688A689A4220D359
S3150800C9E0002383F311882046BDE8F081E9680A1D13
S3150800C9F00968EA60C8F8001069688A4201D32A689B
S3150800CA00EA60013B05F1180000242B6155F038FA5D
S3150800CA10FDF73EFFFCF704FC034B1A689A42DAD18D
S3150800CA20DEE70248FCF714FC5C780220F8B7060833
S3150800CA3038B504460D46FDF7ABF8237DC3B9FDF7B7
S3150800CA40A7F823698BB1E1680A1D0968E2602960C5
S3150800CA5061688A4201D32268E260013B04F118004A
S3150800CA60236155F00DFA002038BD4FF0FF3038BD70
S3150800CA706FF0010038BD00BF000000000000000094
S3150800CA8070B582B038B34307054624D1A5F108042A
S3150800CA9050E902030733061D0C30DB08019045F800
S3150800CAA0043CFFF77DFB33460198A3420ED85A682B
S3150800CAB0013203EBC20294420DD3A34206D21A688E
S3150800CAC062B1A2420AD81346A342F0D9B342F6D0BD
S3150800CAD01A681346F8E71948FCF7BAFB45F8082C14
S3150800CAE055F8042C1C60013255F8081C04EBC206E4
S3150800CAF0B1420AD059684A1C03EBC202944211D0CB
S3150800CB0002B0BDE87040FFF7D3BB4E6816440A680A
S3150800CB1045F8046C596845F8082C4A1C03EBC20210
S3150800CB209442EDD155E9024201321C600A445A602A
S3150800CB3002B0BDE87040FFF7BBBB00BF04B40608EF
S3150800CB4070B52023044683F31188FCF701FD304DA8
S3150800CB502669AE424DD096F82230FF2B46D00133D7
S3150800CB6086F82230FCF75CFB2B68AB4204D0AA6936
S3150800CB709B6892689A4224D3002383F31188202362
S3150800CB8083F31188FCF7E4FC94F82230B3B1013B37
S3150800CB9084F82230236A03F0FF130F2B14D0FCF716
S3150800CBA03FFB2B68AB4204D0AA699B6892689A42FD
S3150800CBB019D3002383F31188304670BD1548FCF756
S3150800CBC047FB1548FCF744FBD4E904231A6122699C
S3150800CBD05361FCF725FB2B68AB420CD0AA699B680E
S3150800CBE092689A4207D20D48FCF732FB0C48FCF7CC
S3150800CBF02FFB0026B6E7002383F3118894F821302B
S3150800CC0003F00303012BD7D1E069FFF739FFD3E718
S3150800CC105C7802206CB8060894B4060898B506082D
S3150800CC205CB40608000000000000000000000000D8
S3150800CC3010B50446FFF724FA02E0FFF781FF10B1AA
S3150800CC40C369A342F9D110BD00000000000000002E
S3150800CC5070B5440782B002D1FF2A164602D9224887
S3150800CC60FCF7F6FA04460D460193FFF7E1FF0028A4
S3150800CC70F5D16219019B944205D22A4655212046D0
S3150800CC805EF08CF9019B2022019382F31188FCF750
S3150800CC905FFCA5F15001019B324660181349A0F1CB
S3150800CCA06405C46140F8243C069C114B40F8204CAE
S3150800CCB040F8043CC560FDF72BFE044654F010FF0F
S3150800CCC0FCF7AEFA0B4B1A689A4204D09969936836
S3150800CCD08A689A4205D3002383F31188204602B056
S3150800CCE070BD0548FCF7B4FA54B5060894B30608AF
S3150800CCF0DD8A20005C78022098B50608000000004E
S3150800CD00EFF30983054968334A6B22F001024A6347
S3150800CD1083F30988002383F31188704700EF00E046
S3150800CD20202383F31188104B5B6813F4006302D148
S3150800CD3083F311887047F1EE103AEFF309834FF049
S3150800CD4080710A4A683BD961D26B1A6683F30988EF
S3150800CD50074A116892698968926891428CBF054AA8
S3150800CD60054A9A61704700BF00ED00E000EF00E059
S3150800CD705C780220F38A2000FE8A2000000000006A
S3150800CD8008B544F08DF8FCF7D3FE0548FFF798FC84
S3150800CD90FCF7E6FE44F08CF8BDE80840FFF7C0BF94
S3150800CDA038760220000000000000000000000000A5
S3150800CDB008B544F075F8FCF7BBFE0548FFF780FC9C
S3150800CDC0FCF7CEFE44F074F8BDE80840FFF7A8BFAC
S3150800CDD09876022000000000000000000000000015
S3150800CDE038B5294D44F05CF8FCF7A2FEEB68696893
S3150800CDF01C69DA681440E2B2D2431A610B7DB3B9F2
S3150800CE00600734D52B78042B2DD0A10716D4E40758
S3150800CE1005D56B681C481B69984703232B70FCF7DC
S3150800CE209FFE44F045F8BDE83840FFF779BFA207F2
S3150800CE300BD52B78042B04D06307E8D504232B7075
S3150800CE40E5E78B68E3B1284698476307DFD52B7873
S3150800CE50042BF3D16968CB68002BEFD00A489847B2
S3150800CE6004232B70D3E78B683BB128469847A10764
S3150800CE70CDD52B78042BE1D1ECE7A007C7D5EAE797
S3150800CE806207C4D5E7E700BF7075022000000000FE
S3150800CE9008B544F005F8FCF74BFE0548FBF7B0FE6D
S3150800CEA0FCF75EFE44F004F8BDE80840FFF738BF1B
S3150800CEB0BC75022000000000000000000000000011
S3150800CEC008B543F0EDFFFCF733FE0548FBF798FE7F
S3150800CED0FCF746FE43F0ECFFBDE80840FFF720BF2D
S3150800CEE0D8750220000000000000000000000000C5
S3150800CEF008B543F0D5FFFCF71BFE0548FBF780FE97
S3150800CF00FCF72EFE43F0D4FFBDE80840FFF708BF44
S3150800CF10F475022000000000000000000000000078
S3150800CF2008B543F0BDFFFCF703FE1448C268136951
S3150800CF30D1680B40D9B2DB076FEA0101116107D549
S3150800CF400378042B0CD043685B680BB10B489847F1
S3150800CF50FCF706FE43F0ACFFBDE80840FFF7E0BE6D
S3150800CF6000230221017013601361D36823F0FF03C5
S3150800CF70D36043685B68002BE8D1E9E76075022057
S3150800CF8008B543F08DFFFCF7D3FDFCF7E9FD43F048
S3150800CF908FFFBDE80840FFF7C3BE00BF00000000D2
S3150800CFA0FFF7EEBF000000000000000000000000D0
S3150800CFB008B543F075FFFCF7BBFD0548FBF720FEF7
S3150800CFC0FCF7CEFD43F074FFBDE80840FFF7A8BEA6
S3150800CFD0107602200000000000000000000000009B
S3150800CFE0FFF7E6BF00000000000000000000000098
S3150800CFF070B543F055FFFCF79BFD8A4B00221D6870
S3150800D0001A60AE0626D5884CE1690B685B680BB3D7
S3150800D0102669002E43D0A06958F03AF8B368002B69
S3150800D02000F0F180052201212046227098472378D6
S3150800D030052B00F0E880202383F31188FCF728FDF0
S3150800D0404FF0FF317948FEF7BBF8FCF759FD00238E
S3150800D05083F31188EC0722D5734C2569FDB1D4E911
S3150800D060060158F015F8AB68002B00F0C2800522BF
S3150800D07002212046227098472378052B00F0B980B4
S3150800D080202383F31188FCF703FD4FF0FF3167482F
S3150800D090FEF796F8FCF734FD002383F31188644BFA
S3150800D0A000221D681A60A80626D5624CE1690B683D
S3150800D0B05B680BB32669002E41D0A06957F0E8FFDC
S3150800D0C0B368002B00F0A4800522012120462270B7
S3150800D0D098472378052B00F09B80202383F311883B
S3150800D0E0FCF7D6FC4FF0FF315348FEF769F8FCF71A
S3150800D0F007FD002383F31188E90720D54D4C2569E0
S3150800D100EDB1D4E9060157F0C3FFAB68002B6BD02D
S3150800D110052202212046227098472378052B63D0E2
S3150800D120202383F31188FCF7B3FC4FF0FF31424804
S3150800D130FEF746F8FCF7E4FC002383F311883F4B1F
S3150800D14000221D681A60AA0624D53D4CE1690B68C1
S3150800D1505B68FBB12669002E3ED0A06957F098FFA0
S3150800D160B368002B59D00522012120462270984722
S3150800D1702378052B51D0202383F31188FCF788FCEC
S3150800D1804FF0FF312F48FEF71BF8FCF7B9FC0023D8
S3150800D19083F31188EB071FD5294C2569E5B1D4E936
S3150800D1A0060157F075FFAB6843B3052202212046F6
S3150800D1B0227098472378052B20D0202383F31188E3
S3150800D1C0FCF766FC4FF0FF311E48FDF7F9FFFCF748
S3150800D1D097FC002383F31188FCF7C2FC43F068FE32
S3150800D1E0BDE87040FFF79CBD022200232270236130
S3150800D1F096E7022200232270236141E702220023D8
S3150800D20022702361D9E7022200232270236112E7E4
S3150800D21002220023227023615FE702220023227084
S3150800D2202361A8E700200140A0740220B4740220FC
S3150800D23000210140C4740220D87402200022014053
S3150800D240E8740220FC7402200000000000000000C0
S3150800D25008B543F025FEFCF76BFC0548FFF768F9AF
S3150800D260FCF77EFC43F024FEBDE80840FFF758BDF6
S3150800D2700C750220000000000000000000000000FD
S3150800D28008B543F00DFEFCF753FC0548FFF788F98F
S3150800D290FCF766FC43F00CFEBDE80840FFF740BD0E
S3150800D2A00C750220000000000000000000000000CD
S3150800D2B008B543F0F5FDFCF73BFC0548FFF7A8F970
S3150800D2C0FCF74EFC43F0F4FDBDE80840FFF728BD27
S3150800D2D00C7502200000000000000000000000009D
S3150800D2E008B543F0DDFDFCF723FC0548FFF7C8F950
S3150800D2F0FCF736FC43F0DCFDBDE80840FFF710BD3F
S3150800D3000C7502200000000000000000000000006C
S3150800D31008B543F0C5FDFCF70BFC0548FFF708F90F
S3150800D320FCF71EFC43F0C4FDBDE80840FFF7F8BC57
S3150800D3303475022000000000000000000000000014
S3150800D34008B543F0ADFDFCF7F3FB0548FFF728F9F0
S3150800D350FCF706FC43F0ACFDBDE80840FFF7E0BC6F
S3150800D36034750220000000000000000000000000E4
S3150800D37008B543F095FDFCF7DBFB0548FFF748F9D0
S3150800D380FCF7EEFB43F094FDBDE80840FFF7C8BC88
S3150800D39034750220000000000000000000000000B4
S3150800D3A008B543F07DFDFCF7C3FB0548FFF768F9B0
S3150800D3B0FCF7D6FB43F07CFDBDE80840FFF7B0BCA0
S3150800D3C03475022000000000000000000000000084
S3150800D3D008B543F065FDFCF7ABFB094B094819682E
S3150800D3E0426801F03D0199600AB180689047FCF7F0
S3150800D3F0B7FB43F05DFDBDE80840FFF791BC00BFF1
S3150800D40000600240F07802200000000000000000E2
S3150800D41010B543F045FDFCF78BFB0A4B0A48196823
S3150800D420C268890901F03D018C019C600AB1006956
S3150800D4309047FCF795FB43F03BFDBDE81040FFF72E
S3150800D4406FBC00BF00600240F078022000000000B8
S3150800D45010B543F025FDFCF76BFB0A4B0A48196823
S3150800D4604269090C01F03D010C049C600AB180690F
S3150800D4709047FCF775FB43F01BFDBDE81040FFF72E
S3150800D4804FBC00BF00600240F07802200000000098
S3150800D49010B543F005FDFCF74BFB0A4B0A48196823
S3150800D4A0C269890D01F03D018C059C600AB1006ACC
S3150800D4B09047FCF755FB43F0FBFCBDE81040FFF72F
S3150800D4C02FBC00BF00600240F07802200000000078
S3150800D4D008B543F0E5FCFCF72BFB094B09485968EE
S3150800D4E0426A01F03D01D9600AB1806A9047FCF7AB
S3150800D4F037FB43F0DDFCBDE80840FFF711BC00BF71
